{
  "address": "0x0159Ac349A62Bb8B350ed8b0D98488Cf221344F6",
  "abi": [
    {
      "inputs": [
        {
          "internalType": "contract IERC20",
          "name": "_ido",
          "type": "address"
        },
        {
          "internalType": "contract IERC20",
          "name": "_arb",
          "type": "address"
        },
        {
          "internalType": "uint256",
          "name": "_swapRate",
          "type": "uint256"
        },
        {
          "internalType": "uint256",
          "name": "_swapRate1",
          "type": "uint256"
        },
        {
          "internalType": "uint256",
          "name": "_purchaseCap",
          "type": "uint256"
        }
      ],
      "stateMutability": "nonpayable",
      "type": "constructor"
    },
    {
      "anonymous": false,
      "inputs": [
        {
          "indexed": true,
          "internalType": "address",
          "name": "sender",
          "type": "address"
        },
        {
          "indexed": false,
          "internalType": "uint256",
          "name": "amount",
          "type": "uint256"
        }
      ],
      "name": "Claimed",
      "type": "event"
    },
    {
      "anonymous": false,
      "inputs": [
        {
          "indexed": true,
          "internalType": "address",
          "name": "sender",
          "type": "address"
        },
        {
          "indexed": false,
          "internalType": "uint256",
          "name": "amount",
          "type": "uint256"
        }
      ],
      "name": "Deposited",
      "type": "event"
    },
    {
      "anonymous": false,
      "inputs": [
        {
          "indexed": true,
          "internalType": "address",
          "name": "previousOwner",
          "type": "address"
        },
        {
          "indexed": true,
          "internalType": "address",
          "name": "newOwner",
          "type": "address"
        }
      ],
      "name": "OwnershipTransferred",
      "type": "event"
    },
    {
      "anonymous": false,
      "inputs": [
        {
          "indexed": false,
          "internalType": "address",
          "name": "account",
          "type": "address"
        }
      ],
      "name": "Paused",
      "type": "event"
    },
    {
      "anonymous": false,
      "inputs": [
        {
          "indexed": false,
          "internalType": "uint256",
          "name": "purchaseCap",
          "type": "uint256"
        }
      ],
      "name": "PurchaseCapChanged",
      "type": "event"
    },
    {
      "anonymous": false,
      "inputs": [
        {
          "indexed": true,
          "internalType": "address",
          "name": "sender",
          "type": "address"
        },
        {
          "indexed": false,
          "internalType": "uint256",
          "name": "amount",
          "type": "uint256"
        }
      ],
      "name": "Purchased",
      "type": "event"
    },
    {
      "anonymous": false,
      "inputs": [
        {
          "indexed": false,
          "internalType": "uint256",
          "name": "swapRate1",
          "type": "uint256"
        }
      ],
      "name": "SwapRate1Changed",
      "type": "event"
    },
    {
      "anonymous": false,
      "inputs": [
        {
          "indexed": false,
          "internalType": "uint256",
          "name": "swapRate",
          "type": "uint256"
        }
      ],
      "name": "SwapRateChanged",
      "type": "event"
    },
    {
      "anonymous": false,
      "inputs": [
        {
          "indexed": true,
          "internalType": "address",
          "name": "sender",
          "type": "address"
        },
        {
          "indexed": false,
          "internalType": "uint256",
          "name": "amount",
          "type": "uint256"
        }
      ],
      "name": "Swept",
      "type": "event"
    },
    {
      "anonymous": false,
      "inputs": [
        {
          "indexed": false,
          "internalType": "address",
          "name": "account",
          "type": "address"
        }
      ],
      "name": "Unpaused",
      "type": "event"
    },
    {
      "inputs": [],
      "name": "arb",
      "outputs": [
        {
          "internalType": "contract IERC20",
          "name": "",
          "type": "address"
        }
      ],
      "stateMutability": "view",
      "type": "function"
    },
    {
      "inputs": [
        {
          "internalType": "uint256",
          "name": "amount",
          "type": "uint256"
        }
      ],
      "name": "claim",
      "outputs": [],
      "stateMutability": "nonpayable",
      "type": "function"
    },
    {
      "inputs": [
        {
          "internalType": "address",
          "name": "",
          "type": "address"
        }
      ],
      "name": "claimedAmounts",
      "outputs": [
        {
          "internalType": "uint256",
          "name": "",
          "type": "uint256"
        }
      ],
      "stateMutability": "view",
      "type": "function"
    },
    {
      "inputs": [
        {
          "internalType": "uint256",
          "name": "amount",
          "type": "uint256"
        }
      ],
      "name": "depositTokens",
      "outputs": [],
      "stateMutability": "nonpayable",
      "type": "function"
    },
    {
      "inputs": [],
      "name": "endTime",
      "outputs": [
        {
          "internalType": "uint256",
          "name": "",
          "type": "uint256"
        }
      ],
      "stateMutability": "view",
      "type": "function"
    },
    {
      "inputs": [],
      "name": "ido",
      "outputs": [
        {
          "internalType": "contract IERC20",
          "name": "",
          "type": "address"
        }
      ],
      "stateMutability": "view",
      "type": "function"
    },
    {
      "inputs": [],
      "name": "owner",
      "outputs": [
        {
          "internalType": "address",
          "name": "",
          "type": "address"
        }
      ],
      "stateMutability": "view",
      "type": "function"
    },
    {
      "inputs": [],
      "name": "participants",
      "outputs": [
        {
          "internalType": "uint256",
          "name": "",
          "type": "uint256"
        }
      ],
      "stateMutability": "view",
      "type": "function"
    },
    {
      "inputs": [],
      "name": "pause",
      "outputs": [],
      "stateMutability": "nonpayable",
      "type": "function"
    },
    {
      "inputs": [],
      "name": "paused",
      "outputs": [
        {
          "internalType": "bool",
          "name": "",
          "type": "bool"
        }
      ],
      "stateMutability": "view",
      "type": "function"
    },
    {
      "inputs": [],
      "name": "purchase",
      "outputs": [],
      "stateMutability": "payable",
      "type": "function"
    },
    {
      "inputs": [],
      "name": "purchaseCap",
      "outputs": [
        {
          "internalType": "uint256",
          "name": "",
          "type": "uint256"
        }
      ],
      "stateMutability": "view",
      "type": "function"
    },
    {
      "inputs": [
        {
          "internalType": "uint256",
          "name": "token_amount",
          "type": "uint256"
        }
      ],
      "name": "purchaseWithToken",
      "outputs": [],
      "stateMutability": "nonpayable",
      "type": "function"
    },
    {
      "inputs": [
        {
          "internalType": "address",
          "name": "",
          "type": "address"
        }
      ],
      "name": "purchasedARBAmounts",
      "outputs": [
        {
          "internalType": "uint256",
          "name": "",
          "type": "uint256"
        }
      ],
      "stateMutability": "view",
      "type": "function"
    },
    {
      "inputs": [
        {
          "internalType": "address",
          "name": "",
          "type": "address"
        }
      ],
      "name": "purchasedAmounts",
      "outputs": [
        {
          "internalType": "uint256",
          "name": "",
          "type": "uint256"
        }
      ],
      "stateMutability": "view",
      "type": "function"
    },
    {
      "inputs": [
        {
          "internalType": "address",
          "name": "",
          "type": "address"
        }
      ],
      "name": "purchasedETHAmounts",
      "outputs": [
        {
          "internalType": "uint256",
          "name": "",
          "type": "uint256"
        }
      ],
      "stateMutability": "view",
      "type": "function"
    },
    {
      "inputs": [
        {
          "internalType": "address",
          "name": "",
          "type": "address"
        }
      ],
      "name": "purchasedStatus",
      "outputs": [
        {
          "internalType": "bool",
          "name": "",
          "type": "bool"
        }
      ],
      "stateMutability": "view",
      "type": "function"
    },
    {
      "inputs": [],
      "name": "renounceOwnership",
      "outputs": [],
      "stateMutability": "nonpayable",
      "type": "function"
    },
    {
      "inputs": [
        {
          "internalType": "uint256",
          "name": "_endTime",
          "type": "uint256"
        }
      ],
      "name": "setEndTime",
      "outputs": [],
      "stateMutability": "nonpayable",
      "type": "function"
    },
    {
      "inputs": [
        {
          "internalType": "uint256",
          "name": "_purchaseCap",
          "type": "uint256"
        }
      ],
      "name": "setPurchaseCap",
      "outputs": [],
      "stateMutability": "nonpayable",
      "type": "function"
    },
    {
      "inputs": [
        {
          "internalType": "uint256",
          "name": "_startTime",
          "type": "uint256"
        }
      ],
      "name": "setStartTime",
      "outputs": [],
      "stateMutability": "nonpayable",
      "type": "function"
    },
    {
      "inputs": [
        {
          "internalType": "uint256",
          "name": "_swapRate",
          "type": "uint256"
        }
      ],
      "name": "setSwapRate",
      "outputs": [],
      "stateMutability": "nonpayable",
      "type": "function"
    },
    {
      "inputs": [
        {
          "internalType": "uint256",
          "name": "_swapRate1",
          "type": "uint256"
        }
      ],
      "name": "setSwapRate1",
      "outputs": [],
      "stateMutability": "nonpayable",
      "type": "function"
    },
    {
      "inputs": [],
      "name": "startTime",
      "outputs": [
        {
          "internalType": "uint256",
          "name": "",
          "type": "uint256"
        }
      ],
      "stateMutability": "view",
      "type": "function"
    },
    {
      "inputs": [],
      "name": "swapRate",
      "outputs": [
        {
          "internalType": "uint256",
          "name": "",
          "type": "uint256"
        }
      ],
      "stateMutability": "view",
      "type": "function"
    },
    {
      "inputs": [],
      "name": "swapRate1",
      "outputs": [
        {
          "internalType": "uint256",
          "name": "",
          "type": "uint256"
        }
      ],
      "stateMutability": "view",
      "type": "function"
    },
    {
      "inputs": [],
      "name": "totalPurchasedAmount",
      "outputs": [
        {
          "internalType": "uint256",
          "name": "",
          "type": "uint256"
        }
      ],
      "stateMutability": "view",
      "type": "function"
    },
    {
      "inputs": [
        {
          "internalType": "address",
          "name": "newOwner",
          "type": "address"
        }
      ],
      "name": "transferOwnership",
      "outputs": [],
      "stateMutability": "nonpayable",
      "type": "function"
    },
    {
      "inputs": [],
      "name": "unpause",
      "outputs": [],
      "stateMutability": "nonpayable",
      "type": "function"
    },
    {
      "inputs": [],
      "name": "withdraw",
      "outputs": [],
      "stateMutability": "nonpayable",
      "type": "function"
    },
    {
      "inputs": [
        {
          "internalType": "address",
          "name": "_tokenAddr",
          "type": "address"
        }
      ],
      "name": "withdrawToken",
      "outputs": [],
      "stateMutability": "nonpayable",
      "type": "function"
    }
  ],
  "transactionHash": "0x62c8dae34fb221d811ac09fdb0750ea3c68a5b3729af3eefb29f0dcb130cc2fb",
  "args": [
    "0x28cb21bd49351699C0414CF18BEE720BC64CcB7c",
    "0xCfEF4B3F7B2a606a0Ed5c2C2C933973B224baa4a",
    6666700,
    5155,
    "333340000000000000000000"
  ],
  "numDeployments": 1,
  "solcInputHash": "3b0647037e82dad11880d098eb908d61",
  "bytecode": "0x60806040523480156200001157600080fd5b5060405162001e3f38038062001e3f8339810160408190526200003491620002a8565b6000805460ff19169055600180556200004d3362000239565b6001600160a01b038516620000a95760405162461bcd60e51b815260206004820152601c60248201527f49444f53616c653a2049444f5f414444524553535f494e56414c49440000000060448201526064015b60405180910390fd5b6001600160a01b038416620001015760405162461bcd60e51b815260206004820152601c60248201527f49444f53616c653a204152425f414444524553535f494e56414c4944000000006044820152606401620000a0565b60008311620001535760405162461bcd60e51b815260206004820152601c60248201527f49444f53616c653a20544f4b454e5f50524943455f494e56414c4944000000006044820152606401620000a0565b60008211620001a55760405162461bcd60e51b815260206004820152601c60248201527f49444f53616c653a20544f4b454e5f50524943455f494e56414c4944000000006044820152606401620000a0565b60008111620001f75760405162461bcd60e51b815260206004820152601d60248201527f49444f53616c653a2050555243484153455f4341505f494e56414c49440000006044820152606401620000a0565b600a80546001600160a01b039687166001600160a01b031991821617909155600b805495909616941693909317909355600855600991909155600c55620002fb565b600280546001600160a01b038381166001600160a01b0319831681179093556040519116919082907f8be0079c531659141344cd1fd0a4f28419497f9722a3daafe3b4186f6b6457e090600090a35050565b80516001600160a01b0381168114620002a357600080fd5b919050565b600080600080600060a08688031215620002c157600080fd5b620002cc866200028b565b9450620002dc602087016200028b565b6040870151606088015160809098015196999198509695945092505050565b611b34806200030b6000396000f3fe6080604052600436106101d85760003560e01c80638947606911610102578063bedac10011610095578063eeb522aa11610064578063eeb522aa14610515578063f2fde38b14610535578063f4cde46914610555578063fe07d1d51461057557600080fd5b8063bedac100146104a9578063ccb98ffc146104bf578063cd114d81146104df578063dd49756e146104f557600080fd5b8063aa13917e116100d1578063aa13917e14610426578063ab0fe87414610453578063acb5fedf14610469578063b60338521461048957600080fd5b806389476069146103845780638da5cb5b146103a45780639695ca4e146103d657806398f06972146103f657600080fd5b80635c975abb1161017a57806371417b321161014957806371417b3214610317578063715018a61461034457806378e97925146103595780638456cb591461036f57600080fd5b80635c975abb146102bf57806364edfbf0146102e3578063698518e5146102eb5780636c4470fb1461030157600080fd5b80633ccfd60b116101b65780633ccfd60b146102485780633e0a322d1461025d5780633f4ba83a1461027d578063449b1f111461029257600080fd5b80633197cbb6146101dd578063379607f5146102065780633931c9a814610228575b600080fd5b3480156101e957600080fd5b506101f3600f5481565b6040519081526020015b60405180910390f35b34801561021257600080fd5b50610226610221366004611985565b6105a2565b005b34801561023457600080fd5b50610226610243366004611985565b610795565b34801561025457600080fd5b50610226610bec565b34801561026957600080fd5b50610226610278366004611985565b610c4c565b34801561028957600080fd5b50610226610c59565b34801561029e57600080fd5b506101f36102ad36600461199e565b60046020526000908152604090205481565b3480156102cb57600080fd5b5060005460ff165b60405190151581526020016101fd565b610226610c6b565b3480156102f757600080fd5b506101f360085481565b34801561030d57600080fd5b506101f360105481565b34801561032357600080fd5b506101f361033236600461199e565b60066020526000908152604090205481565b34801561035057600080fd5b5061022661103b565b34801561036557600080fd5b506101f3600e5481565b34801561037b57600080fd5b5061022661104d565b34801561039057600080fd5b5061022661039f36600461199e565b61105d565b3480156103b057600080fd5b506002546001600160a01b03165b6040516001600160a01b0390911681526020016101fd565b3480156103e257600080fd5b506102266103f1366004611985565b61121a565b34801561040257600080fd5b506102d361041136600461199e565b60076020526000908152604090205460ff1681565b34801561043257600080fd5b506101f361044136600461199e565b60056020526000908152604090205481565b34801561045f57600080fd5b506101f3600c5481565b34801561047557600080fd5b50600b546103be906001600160a01b031681565b34801561049557600080fd5b506102266104a4366004611985565b61125e565b3480156104b557600080fd5b506101f3600d5481565b3480156104cb57600080fd5b506102266104da366004611985565b61129b565b3480156104eb57600080fd5b506101f360095481565b34801561050157600080fd5b50610226610510366004611985565b6112a8565b34801561052157600080fd5b50600a546103be906001600160a01b031681565b34801561054157600080fd5b5061022661055036600461199e565b611358565b34801561056157600080fd5b50610226610570366004611985565b6113e5565b34801561058157600080fd5b506101f361059036600461199e565b60036020526000908152604090205481565b6002600154036105f95760405162461bcd60e51b815260206004820152601f60248201527f5265656e7472616e637947756172643a207265656e7472616e742063616c6c0060448201526064015b60405180910390fd5b6002600155610606611422565b42600f5411156106585760405162461bcd60e51b815260206004820152601760248201527f49444f53616c653a2053414c455f4e4f545f454e44454400000000000000000060448201526064016105f0565b600081116106a85760405162461bcd60e51b815260206004820152601d60248201527f49444f53616c653a20434c41494d5f414d4f554e545f494e56414c494400000060448201526064016105f0565b336000908152600360209081526040808320546006909252909120546106cf9083906119dd565b111561071d5760405162461bcd60e51b815260206004820152601e60248201527f49444f53616c653a20434c41494d5f414d4f554e545f4558434545444544000060448201526064016105f0565b336000908152600660205260408120805483929061073c9084906119dd565b9091555050600a54610758906001600160a01b03163383611475565b60405181815233907fd8138f8a3f377c5259ca548e70e4c2de94f129f5a11036a15b69513cba2b426a906020015b60405180910390a25060018055565b6002600154036107e75760405162461bcd60e51b815260206004820152601f60248201527f5265656e7472616e637947756172643a207265656e7472616e742063616c6c0060448201526064016105f0565b60026001556107f4611422565b42600e5411156108465760405162461bcd60e51b815260206004820152601960248201527f49444f53616c653a2053414c455f4e4f545f535441525445440000000000000060448201526064016105f0565b600f5442106108975760405162461bcd60e51b815260206004820152601b60248201527f49444f53616c653a2053414c455f414c52454144595f454e444544000000000060448201526064016105f0565b600081116108e75760405162461bcd60e51b815260206004820181905260248201527f49444f53616c653a2050555243484153455f414d4f554e545f494e56414c494460448201526064016105f0565b600c546064600954836108fa91906119f6565b6109049190611a15565b3360009081526003602052604090205461091e91906119dd565b111561096c5760405162461bcd60e51b815260206004820152601e60248201527f49444f53616c653a2050555243484153455f4341505f4558434545444544000060448201526064016105f0565b600a546040516370a0823160e01b81523060048201526000916001600160a01b0316906370a0823190602401602060405180830381865afa1580156109b5573d6000803e3d6000fd5b505050506040513d601f19601f820116820180604052508101906109d99190611a37565b9050806064600954846109ec91906119f6565b6109f69190611a15565b600d54610a0391906119dd565b1115610a5c5760405162461bcd60e51b815260206004820152602260248201527f49444f53616c653a20494e53554646494349454e545f53454c4c5f42414c414e604482015261434560f01b60648201526084016105f0565b600b546040516323b872dd60e01b8152336004820152306024820152604481018490526001600160a01b03909116906323b872dd906064016020604051808303816000875af1158015610ab3573d6000803e3d6000fd5b505050506040513d601f19601f82011682018060405250810190610ad79190611a50565b50606460095483610ae891906119f6565b610af29190611a15565b3360009081526003602052604081208054909190610b119084906119dd565b90915550503360009081526005602052604081208054849290610b359084906119dd565b9091555050600954606490610b4a90846119f6565b610b549190611a15565b600d6000828254610b6591906119dd565b90915550503360009081526007602052604090205460ff16610baf57336000908152600760205260408120805460ff191660011790556010805491610ba983611a72565b91905055505b60405182815233907fa512fb2532ca8587f236380171326ebb69670e86a2ba0c4412a3fcca4c3ada9b9060200160405180910390a2505060018055565b610bf4611523565b604051600090339047908381818185875af1925050503d8060008114610c36576040519150601f19603f3d011682016040523d82523d6000602084013e610c3b565b606091505b5050905080610c4957600080fd5b50565b610c54611523565b600e55565b610c61611523565b610c6961157d565b565b600260015403610cbd5760405162461bcd60e51b815260206004820152601f60248201527f5265656e7472616e637947756172643a207265656e7472616e742063616c6c0060448201526064016105f0565b6002600155610cca611422565b42600e541115610d1c5760405162461bcd60e51b815260206004820152601960248201527f49444f53616c653a2053414c455f4e4f545f535441525445440000000000000060448201526064016105f0565b600f544210610d6d5760405162461bcd60e51b815260206004820152601b60248201527f49444f53616c653a2053414c455f414c52454144595f454e444544000000000060448201526064016105f0565b60003411610dbd5760405162461bcd60e51b815260206004820181905260248201527f49444f53616c653a2050555243484153455f414d4f554e545f494e56414c494460448201526064016105f0565b600c54606460085434610dd091906119f6565b610dda9190611a15565b33600090815260036020526040902054610df491906119dd565b1115610e425760405162461bcd60e51b815260206004820152601e60248201527f49444f53616c653a2050555243484153455f4341505f4558434545444544000060448201526064016105f0565b600a546040516370a0823160e01b81523060048201526000916001600160a01b0316906370a0823190602401602060405180830381865afa158015610e8b573d6000803e3d6000fd5b505050506040513d601f19601f82011682018060405250810190610eaf9190611a37565b905080606460085434610ec291906119f6565b610ecc9190611a15565b600d54610ed991906119dd565b1115610f325760405162461bcd60e51b815260206004820152602260248201527f49444f53616c653a20494e53554646494349454e545f53454c4c5f42414c414e604482015261434560f01b60648201526084016105f0565b606460085434610f4291906119f6565b610f4c9190611a15565b3360009081526003602052604081208054909190610f6b9084906119dd565b90915550503360009081526004602052604081208054349290610f8f9084906119dd565b9091555050600854606490610fa490346119f6565b610fae9190611a15565b600d6000828254610fbf91906119dd565b90915550503360009081526007602052604090205460ff1661100957336000908152600760205260408120805460ff19166001179055601080549161100383611a72565b91905055505b60405134815233907fa512fb2532ca8587f236380171326ebb69670e86a2ba0c4412a3fcca4c3ada9b90602001610786565b611043611523565b610c6960006115cf565b611055611523565b610c69611639565b611065611523565b6040516370a0823160e01b81523060048201526000906001600160a01b038316906370a0823190602401602060405180830381865afa1580156110ac573d6000803e3d6000fd5b505050506040513d601f19601f820116820180604052508101906110d09190611a37565b1161111d5760405162461bcd60e51b815260206004820152601860248201527f53756666696369656e7420546f6b656e2062616c616e6365000000000000000060448201526064016105f0565b6040516370a0823160e01b81523060048201526001600160a01b0382169063a9059cbb90339083906370a0823190602401602060405180830381865afa15801561116b573d6000803e3d6000fd5b505050506040513d601f19601f8201168201806040525081019061118f9190611a37565b6040517fffffffff0000000000000000000000000000000000000000000000000000000060e085901b1681526001600160a01b03909216600483015260248201526044016020604051808303816000875af11580156111f2573d6000803e3d6000fd5b505050506040513d601f19601f820116820180604052508101906112169190611a50565b5050565b611222611523565b60098190556040518181527f474e14fe0127542680b5247ee46a9d7fabbeba8c16671c949d1963df5b094db0906020015b60405180910390a150565b611266611523565b600c8190556040518181527f23eb383159943d100968a603a73e7002356a9a2e41de1f638a137c58b9282fe690602001611253565b6112a3611523565b600f55565b6112b0611523565b6112b8611422565b600081116113085760405162461bcd60e51b815260206004820152601f60248201527f49444f53616c653a204445504f5349545f414d4f554e545f494e56414c49440060448201526064016105f0565b61132033600a546001600160a01b0316903084611676565b60405181815233907f2da466a7b24304f47e87fa2e1e5a81b9831ce54fec19055ce277ca2f39ba42c49060200160405180910390a250565b611360611523565b6001600160a01b0381166113dc5760405162461bcd60e51b815260206004820152602660248201527f4f776e61626c653a206e6577206f776e657220697320746865207a65726f206160448201527f646472657373000000000000000000000000000000000000000000000000000060648201526084016105f0565b610c49816115cf565b6113ed611523565b60088190556040518181527fa6cd94206ba0776de155f0ff3b504a43dfde42c5dafb62f1d10828342c7241b090602001611253565b60005460ff1615610c695760405162461bcd60e51b815260206004820152601060248201527f5061757361626c653a207061757365640000000000000000000000000000000060448201526064016105f0565b6040516001600160a01b03831660248201526044810182905261151e9084907fa9059cbb00000000000000000000000000000000000000000000000000000000906064015b60408051601f198184030181529190526020810180517bffffffffffffffffffffffffffffffffffffffffffffffffffffffff167fffffffff00000000000000000000000000000000000000000000000000000000909316929092179091526116b4565b505050565b6002546001600160a01b03163314610c695760405162461bcd60e51b815260206004820181905260248201527f4f776e61626c653a2063616c6c6572206973206e6f7420746865206f776e657260448201526064016105f0565b611585611799565b6000805460ff191690557f5db9ee0a495bf2e6ff9c91a7834c1ba4fdd244a5e8aa4e537bd38aeae4b073aa335b6040516001600160a01b03909116815260200160405180910390a1565b600280546001600160a01b038381167fffffffffffffffffffffffff0000000000000000000000000000000000000000831681179093556040519116919082907f8be0079c531659141344cd1fd0a4f28419497f9722a3daafe3b4186f6b6457e090600090a35050565b611641611422565b6000805460ff191660011790557f62e78cea01bee320cd4e420270b5ea74000d11b0c9f74754ebdbfc544b05a2586115b23390565b6040516001600160a01b03808516602483015283166044820152606481018290526116ae9085906323b872dd60e01b906084016114ba565b50505050565b6000611709826040518060400160405280602081526020017f5361666545524332303a206c6f772d6c6576656c2063616c6c206661696c6564815250856001600160a01b03166117eb9092919063ffffffff16565b80519091501561151e57808060200190518101906117279190611a50565b61151e5760405162461bcd60e51b815260206004820152602a60248201527f5361666545524332303a204552433230206f7065726174696f6e20646964206e60448201527f6f7420737563636565640000000000000000000000000000000000000000000060648201526084016105f0565b60005460ff16610c695760405162461bcd60e51b815260206004820152601460248201527f5061757361626c653a206e6f742070617573656400000000000000000000000060448201526064016105f0565b60606117fa8484600085611804565b90505b9392505050565b60608247101561187c5760405162461bcd60e51b815260206004820152602660248201527f416464726573733a20696e73756666696369656e742062616c616e636520666f60448201527f722063616c6c000000000000000000000000000000000000000000000000000060648201526084016105f0565b6001600160a01b0385163b6118d35760405162461bcd60e51b815260206004820152601d60248201527f416464726573733a2063616c6c20746f206e6f6e2d636f6e747261637400000060448201526064016105f0565b600080866001600160a01b031685876040516118ef9190611aaf565b60006040518083038185875af1925050503d806000811461192c576040519150601f19603f3d011682016040523d82523d6000602084013e611931565b606091505b509150915061194182828661194c565b979650505050505050565b6060831561195b5750816117fd565b82511561196b5782518084602001fd5b8160405162461bcd60e51b81526004016105f09190611acb565b60006020828403121561199757600080fd5b5035919050565b6000602082840312156119b057600080fd5b81356001600160a01b03811681146117fd57600080fd5b634e487b7160e01b600052601160045260246000fd5b808201808211156119f0576119f06119c7565b92915050565b6000816000190483118215151615611a1057611a106119c7565b500290565b600082611a3257634e487b7160e01b600052601260045260246000fd5b500490565b600060208284031215611a4957600080fd5b5051919050565b600060208284031215611a6257600080fd5b815180151581146117fd57600080fd5b600060018201611a8457611a846119c7565b5060010190565b60005b83811015611aa6578181015183820152602001611a8e565b50506000910152565b60008251611ac1818460208701611a8b565b9190910192915050565b6020815260008251806020840152611aea816040850160208701611a8b565b601f01601f1916919091016040019291505056fea26469706673582212205c6189b4ccf312c8ff5870d9652d288858dacffa876a7450dd09a133805f240664736f6c63430008100033",
  "devdoc": {
    "kind": "dev",
    "methods": {
      "claim(uint256)": {
        "details": "Users claim purchased tokens after token sale ended"
      },
      "depositTokens(uint256)": {
        "details": "Deposit IDO token to the sale contract"
      },
      "owner()": {
        "details": "Returns the address of the current owner."
      },
      "pause()": {
        "details": "Pause the sale"
      },
      "paused()": {
        "details": "Returns true if the contract is paused, and false otherwise."
      },
      "purchase()": {
        "details": "Purchase IDO token users can purchase within `purchcaseCap` amount"
      },
      "purchaseWithToken(uint256)": {
        "details": "Purchase IDO token with other token users can purchase within `purchcaseCap` amount"
      },
      "renounceOwnership()": {
        "details": "Leaves the contract without owner. It will not be possible to call `onlyOwner` functions anymore. Can only be called by the current owner. NOTE: Renouncing ownership will leave the contract without an owner, thereby removing any functionality that is only available to the owner."
      },
      "setEndTime(uint256)": {
        "details": "Set purchase cap for each user"
      },
      "setPurchaseCap(uint256)": {
        "details": "Set purchase cap for each user"
      },
      "setStartTime(uint256)": {
        "details": "Set purchase cap for each user"
      },
      "setSwapRate(uint256)": {
        "details": "Set ido token price in purchaseToken"
      },
      "setSwapRate1(uint256)": {
        "details": "Set arb token price in purchaseToken"
      },
      "transferOwnership(address)": {
        "details": "Transfers ownership of the contract to a new account (`newOwner`). Can only be called by the current owner."
      },
      "unpause()": {
        "details": "Unpause the sale"
      },
      "withdraw()": {
        "details": "`Operator` sweeps `purchaseToken` from the sale contract to `to` address"
      }
    },
    "version": 1
  },
  "userdoc": {
    "kind": "user",
    "methods": {},
    "notice": "Users can purchase tokens after sale started and claim after sale ended",
    "version": 1
  },
  "storageLayout": {
    "storage": [
      {
        "astId": 133,
        "contract": "contracts/IDOSale.sol:IDOSale",
        "label": "_paused",
        "offset": 0,
        "slot": "0",
        "type": "t_bool"
      },
      {
        "astId": 234,
        "contract": "contracts/IDOSale.sol:IDOSale",
        "label": "_status",
        "offset": 0,
        "slot": "1",
        "type": "t_uint256"
      },
      {
        "astId": 7,
        "contract": "contracts/IDOSale.sol:IDOSale",
        "label": "_owner",
        "offset": 0,
        "slot": "2",
        "type": "t_address"
      },
      {
        "astId": 2701,
        "contract": "contracts/IDOSale.sol:IDOSale",
        "label": "purchasedAmounts",
        "offset": 0,
        "slot": "3",
        "type": "t_mapping(t_address,t_uint256)"
      },
      {
        "astId": 2705,
        "contract": "contracts/IDOSale.sol:IDOSale",
        "label": "purchasedETHAmounts",
        "offset": 0,
        "slot": "4",
        "type": "t_mapping(t_address,t_uint256)"
      },
      {
        "astId": 2709,
        "contract": "contracts/IDOSale.sol:IDOSale",
        "label": "purchasedARBAmounts",
        "offset": 0,
        "slot": "5",
        "type": "t_mapping(t_address,t_uint256)"
      },
      {
        "astId": 2713,
        "contract": "contracts/IDOSale.sol:IDOSale",
        "label": "claimedAmounts",
        "offset": 0,
        "slot": "6",
        "type": "t_mapping(t_address,t_uint256)"
      },
      {
        "astId": 2717,
        "contract": "contracts/IDOSale.sol:IDOSale",
        "label": "purchasedStatus",
        "offset": 0,
        "slot": "7",
        "type": "t_mapping(t_address,t_bool)"
      },
      {
        "astId": 2719,
        "contract": "contracts/IDOSale.sol:IDOSale",
        "label": "swapRate",
        "offset": 0,
        "slot": "8",
        "type": "t_uint256"
      },
      {
        "astId": 2721,
        "contract": "contracts/IDOSale.sol:IDOSale",
        "label": "swapRate1",
        "offset": 0,
        "slot": "9",
        "type": "t_uint256"
      },
      {
        "astId": 2724,
        "contract": "contracts/IDOSale.sol:IDOSale",
        "label": "ido",
        "offset": 0,
        "slot": "10",
        "type": "t_contract(IERC20)341"
      },
      {
        "astId": 2727,
        "contract": "contracts/IDOSale.sol:IDOSale",
        "label": "arb",
        "offset": 0,
        "slot": "11",
        "type": "t_contract(IERC20)341"
      },
      {
        "astId": 2729,
        "contract": "contracts/IDOSale.sol:IDOSale",
        "label": "purchaseCap",
        "offset": 0,
        "slot": "12",
        "type": "t_uint256"
      },
      {
        "astId": 2731,
        "contract": "contracts/IDOSale.sol:IDOSale",
        "label": "totalPurchasedAmount",
        "offset": 0,
        "slot": "13",
        "type": "t_uint256"
      },
      {
        "astId": 2733,
        "contract": "contracts/IDOSale.sol:IDOSale",
        "label": "startTime",
        "offset": 0,
        "slot": "14",
        "type": "t_uint256"
      },
      {
        "astId": 2735,
        "contract": "contracts/IDOSale.sol:IDOSale",
        "label": "endTime",
        "offset": 0,
        "slot": "15",
        "type": "t_uint256"
      },
      {
        "astId": 2737,
        "contract": "contracts/IDOSale.sol:IDOSale",
        "label": "participants",
        "offset": 0,
        "slot": "16",
        "type": "t_uint256"
      }
    ],
    "types": {
      "t_address": {
        "encoding": "inplace",
        "label": "address",
        "numberOfBytes": "20"
      },
      "t_bool": {
        "encoding": "inplace",
        "label": "bool",
        "numberOfBytes": "1"
      },
      "t_contract(IERC20)341": {
        "encoding": "inplace",
        "label": "contract IERC20",
        "numberOfBytes": "20"
      },
      "t_mapping(t_address,t_bool)": {
        "encoding": "mapping",
        "key": "t_address",
        "label": "mapping(address => bool)",
        "numberOfBytes": "32",
        "value": "t_bool"
      },
      "t_mapping(t_address,t_uint256)": {
        "encoding": "mapping",
        "key": "t_address",
        "label": "mapping(address => uint256)",
        "numberOfBytes": "32",
        "value": "t_uint256"
      },
      "t_uint256": {
        "encoding": "inplace",
        "label": "uint256",
        "numberOfBytes": "32"
      }
    }
  }
}