{
  "address": "0x0F76C5CD4C438FaD1041cec787c8ff876Ed504eF",
  "abi": [
    {
      "inputs": [
        {
          "internalType": "address",
          "name": "_tokenAddress",
          "type": "address"
        },
        {
          "internalType": "address",
          "name": "_wETHAddress",
          "type": "address"
        }
      ],
      "stateMutability": "nonpayable",
      "type": "constructor"
    },
    {
      "anonymous": false,
      "inputs": [
        {
          "indexed": true,
          "internalType": "address",
          "name": "previousOwner",
          "type": "address"
        },
        {
          "indexed": true,
          "internalType": "address",
          "name": "newOwner",
          "type": "address"
        }
      ],
      "name": "OwnershipTransferred",
      "type": "event"
    },
    {
      "inputs": [],
      "name": "claim",
      "outputs": [],
      "stateMutability": "nonpayable",
      "type": "function"
    },
    {
      "inputs": [
        {
          "internalType": "address",
          "name": "_tokenAddr",
          "type": "address"
        }
      ],
      "name": "emergencyRewardWithdraw",
      "outputs": [],
      "stateMutability": "nonpayable",
      "type": "function"
    },
    {
      "inputs": [],
      "name": "emergencyWithdraw",
      "outputs": [],
      "stateMutability": "nonpayable",
      "type": "function"
    },
    {
      "inputs": [],
      "name": "endTime",
      "outputs": [
        {
          "internalType": "uint256",
          "name": "",
          "type": "uint256"
        }
      ],
      "stateMutability": "view",
      "type": "function"
    },
    {
      "inputs": [],
      "name": "maxStakerCount",
      "outputs": [
        {
          "internalType": "uint256",
          "name": "",
          "type": "uint256"
        }
      ],
      "stateMutability": "view",
      "type": "function"
    },
    {
      "inputs": [],
      "name": "minStakingDuration",
      "outputs": [
        {
          "internalType": "uint256",
          "name": "",
          "type": "uint256"
        }
      ],
      "stateMutability": "view",
      "type": "function"
    },
    {
      "inputs": [],
      "name": "minimumShillCount",
      "outputs": [
        {
          "internalType": "uint256",
          "name": "",
          "type": "uint256"
        }
      ],
      "stateMutability": "view",
      "type": "function"
    },
    {
      "inputs": [],
      "name": "owner",
      "outputs": [
        {
          "internalType": "address",
          "name": "",
          "type": "address"
        }
      ],
      "stateMutability": "view",
      "type": "function"
    },
    {
      "inputs": [],
      "name": "renounceOwnership",
      "outputs": [],
      "stateMutability": "nonpayable",
      "type": "function"
    },
    {
      "inputs": [
        {
          "internalType": "uint256",
          "name": "_endTime",
          "type": "uint256"
        }
      ],
      "name": "setEndTime",
      "outputs": [],
      "stateMutability": "nonpayable",
      "type": "function"
    },
    {
      "inputs": [
        {
          "internalType": "uint256",
          "name": "_maxStakerCount",
          "type": "uint256"
        }
      ],
      "name": "setMaxStakerCount",
      "outputs": [],
      "stateMutability": "nonpayable",
      "type": "function"
    },
    {
      "inputs": [
        {
          "internalType": "uint256",
          "name": "_minStakingDuration",
          "type": "uint256"
        }
      ],
      "name": "setMinStakingDuration",
      "outputs": [],
      "stateMutability": "nonpayable",
      "type": "function"
    },
    {
      "inputs": [
        {
          "internalType": "address",
          "name": "_staker",
          "type": "address"
        }
      ],
      "name": "shill",
      "outputs": [],
      "stateMutability": "nonpayable",
      "type": "function"
    },
    {
      "inputs": [
        {
          "internalType": "uint256",
          "name": "_amount",
          "type": "uint256"
        }
      ],
      "name": "stake",
      "outputs": [],
      "stateMutability": "nonpayable",
      "type": "function"
    },
    {
      "inputs": [
        {
          "internalType": "uint256",
          "name": "",
          "type": "uint256"
        }
      ],
      "name": "stakerAddresses",
      "outputs": [
        {
          "internalType": "address",
          "name": "",
          "type": "address"
        }
      ],
      "stateMutability": "view",
      "type": "function"
    },
    {
      "inputs": [
        {
          "internalType": "address",
          "name": "",
          "type": "address"
        }
      ],
      "name": "stakers",
      "outputs": [
        {
          "internalType": "uint256",
          "name": "stakedAmount",
          "type": "uint256"
        },
        {
          "internalType": "uint256",
          "name": "stakingTime",
          "type": "uint256"
        },
        {
          "internalType": "bool",
          "name": "claimed",
          "type": "bool"
        },
        {
          "internalType": "bool",
          "name": "shilled",
          "type": "bool"
        }
      ],
      "stateMutability": "view",
      "type": "function"
    },
    {
      "inputs": [],
      "name": "startTime",
      "outputs": [
        {
          "internalType": "uint256",
          "name": "",
          "type": "uint256"
        }
      ],
      "stateMutability": "view",
      "type": "function"
    },
    {
      "inputs": [],
      "name": "token",
      "outputs": [
        {
          "internalType": "contract IERC20",
          "name": "",
          "type": "address"
        }
      ],
      "stateMutability": "view",
      "type": "function"
    },
    {
      "inputs": [],
      "name": "totalStakedAmount",
      "outputs": [
        {
          "internalType": "uint256",
          "name": "",
          "type": "uint256"
        }
      ],
      "stateMutability": "view",
      "type": "function"
    },
    {
      "inputs": [
        {
          "internalType": "address",
          "name": "newOwner",
          "type": "address"
        }
      ],
      "name": "transferOwnership",
      "outputs": [],
      "stateMutability": "nonpayable",
      "type": "function"
    },
    {
      "inputs": [],
      "name": "unstake",
      "outputs": [],
      "stateMutability": "nonpayable",
      "type": "function"
    },
    {
      "inputs": [],
      "name": "wETH",
      "outputs": [
        {
          "internalType": "contract IERC20",
          "name": "",
          "type": "address"
        }
      ],
      "stateMutability": "view",
      "type": "function"
    }
  ],
  "transactionHash": "0x83f03a7acdb763d8a305a7b734ccc7a9b7719539757e1d5cbf2165f00d369a2f",
  "args": [
    "0xeA5B8D6012b8A7E20CDa20b7b3b986775D8f0E70",
    "0xa440318a56993eD8f09fbAaDbD82f999D3E2C499"
  ],
  "numDeployments": 1,
  "solcInputHash": "73a6760707872172d61b083c4e606fb8",
  "bytecode": "0x60806040526003600555601e60065534801561001a57600080fd5b506040516200144c3803806200144c83398101604081905261003b916100e1565b61004433610075565b600180546001600160a01b039384166001600160a01b03199182161790915560028054929093169116179055610114565b600080546001600160a01b038381166001600160a01b0319831681178455604051919092169283917f8be0079c531659141344cd1fd0a4f28419497f9722a3daafe3b4186f6b6457e09190a35050565b80516001600160a01b03811681146100dc57600080fd5b919050565b600080604083850312156100f457600080fd5b6100fd836100c5565b915061010b602084016100c5565b90509250929050565b61132880620001246000396000f3fe608060405234801561001057600080fd5b50600436106101825760003560e01c80638da5cb5b116100d8578063db2e21bc1161008c578063f242862111610066578063f242862114610303578063f2fde38b14610316578063fc0c546a1461032957600080fd5b8063db2e21bc146102e9578063ddf2308e146102f1578063e25520b9146102fa57600080fd5b8063a694fc3a116100bd578063a694fc3a146102b0578063aa204e9e146102c3578063ccb98ffc146102d657600080fd5b80638da5cb5b1461023c5780639168ae721461024d57600080fd5b80634e71d92d1161013a57806378e979251161011457806378e979251461020d57806385db0dce146102165780638a2ff9a21461022957600080fd5b80634e71d92d146101f4578063567e98f9146101fc578063715018a61461020557600080fd5b80632def66201161016b5780632def6620146101b85780633197cbb6146101c0578063459598a2146101c957600080fd5b806308ae7e5414610187578063289b4d46146101a3575b600080fd5b61019060045481565b6040519081526020015b60405180910390f35b6101b66101b13660046111a0565b61033c565b005b6101b6610349565b61019060085481565b6101dc6101d73660046111a0565b610441565b6040516001600160a01b03909116815260200161019a565b6101b661046b565b61019060035481565b6101b66106c7565b61019060075481565b6101b66102243660046111b9565b6106db565b6101b66102373660046111a0565b610775565b6000546001600160a01b03166101dc565b61028861025b3660046111b9565b60096020526000908152604090208054600182015460029092015490919060ff8082169161010090041684565b604080519485526020850193909352901515918301919091521515606082015260800161019a565b6101b66102be3660046111a0565b610782565b6101b66102d13660046111b9565b610a8f565b6101b66102e43660046111a0565b610bd1565b6101b6610bde565b61019060065481565b61019060055481565b6002546101dc906001600160a01b031681565b6101b66103243660046111b9565b610c3b565b6001546101dc906001600160a01b031681565b610344610cc8565b600655565b336000908152600960205260409020546103aa5760405162461bcd60e51b815260206004820152601060248201527f4e6f207374616b656420616d6f756e740000000000000000000000000000000060448201526064015b60405180910390fd5b6008544210156104075760405162461bcd60e51b815260206004820152602260248201527f5374616b696e67206475726174696f6e206973206e6f7420656e6465642079656044820152613a1760f11b60648201526084016103a1565b3360008181526009602052604090205460015461042f926001600160a01b0390911691610d22565b33600090815260096020526040812055565b600a818154811061045157600080fd5b6000918252602090912001546001600160a01b0316905081565b336000908152600960205260409020546104c75760405162461bcd60e51b815260206004820152601060248201527f4e6f207374616b656420616d6f756e740000000000000000000000000000000060448201526064016103a1565b3360009081526009602052604090206002015460ff161561052a5760405162461bcd60e51b815260206004820152600f60248201527f416c726561647920636c61696d6564000000000000000000000000000000000060448201526064016103a1565b33600090815260096020526040902060020154610100900460ff166105915760405162461bcd60e51b815260206004820152601360248201527f4e6f7420656e6f756768207368696c6c696e670000000000000000000000000060448201526064016103a1565b600454336000908152600960205260409020600101546105b191906111f8565b4210156106255760405162461bcd60e51b8152602060048201526024808201527f4d696e696d756d207374616b696e67206475726174696f6e206e6f742072656160448201527f636865640000000000000000000000000000000000000000000000000000000060648201526084016103a1565b6008544210156106825760405162461bcd60e51b815260206004820152602260248201527f5374616b696e67206475726174696f6e206973206e6f7420656e6465642079656044820152613a1760f11b60648201526084016103a1565b600061068d33610dd0565b6002549091506106a7906001600160a01b03163383610d22565b50336000908152600960205260409020600201805460ff19166001179055565b6106cf610cc8565b6106d96000610e42565b565b6001600160a01b038116600090815260096020526040902060020154610100900460ff161561074c5760405162461bcd60e51b815260206004820152600f60248201527f416c7265616479207368696c6c6564000000000000000000000000000000000060448201526064016103a1565b6001600160a01b03166000908152600960205260409020600201805461ff001916610100179055565b61077d610cc8565b600455565b600654600a54106107d55760405162461bcd60e51b815260206004820152601660248201527f5374616b696e6720736c6f7473206172652066756c6c0000000000000000000060448201526064016103a1565b6108636103e861085d6005600160009054906101000a90046001600160a01b03166001600160a01b03166318160ddd6040518163ffffffff1660e01b8152600401602060405180830381865afa158015610833573d6000803e3d6000fd5b505050506040513d601f19601f82011682018060405250810190610857919061120b565b90610e9f565b90610eb4565b8110156108b25760405162461bcd60e51b815260206004820152601a60248201527f496e73756666696369656e7420746f6b656e2062616c616e636500000000000060448201526064016103a1565b60085442106109035760405162461bcd60e51b815260206004820152601960248201527f5374616b696e67206475726174696f6e20697320656e6465640000000000000060448201526064016103a1565b60015461091b906001600160a01b0316333084610ec0565b3360009081526009602052604081205490036109f05760408051608081018252828152426020808301918252600083850181815260608501828152338084526009909452958220945185559251600185810191909155925160029094018054955115156101000261ff00199515159590951661ffff199096169590951793909317909355600a805491820181559091527fc65a7bb8d6351c1cf70c95a316cc6a92839c986682d98bc35f958f4883f9d2a801805473ffffffffffffffffffffffffffffffffffffffff19169091179055610a7c565b60408051608081018252336000908152600960205291909120548190610a169084610f17565b81524260208083019190915260006040808401829052606093840182905233825260098352908190208451815591840151600183015583015160029091018054939092015161ffff1990931690151561ff00191617610100921515929092029190911790555b600354610a899082610f17565b60035550565b610a97610cc8565b6040516370a0823160e01b81523060048201526000906001600160a01b038316906370a0823190602401602060405180830381865afa158015610ade573d6000803e3d6000fd5b505050506040513d601f19601f82011682018060405250810190610b02919061120b565b11610b4f5760405162461bcd60e51b815260206004820152601860248201527f53756666696369656e7420546f6b656e2062616c616e6365000000000000000060448201526064016103a1565b6040516370a0823160e01b8152306004820152610bce9033906001600160a01b038416906370a0823190602401602060405180830381865afa158015610b99573d6000803e3d6000fd5b505050506040513d601f19601f82011682018060405250810190610bbd919061120b565b6001600160a01b0384169190610d22565b50565b610bd9610cc8565b600855565b610be6610cc8565b604051600090339047908381818185875af1925050503d8060008114610c28576040519150601f19603f3d011682016040523d82523d6000602084013e610c2d565b606091505b5050905080610bce57600080fd5b610c43610cc8565b6001600160a01b038116610cbf5760405162461bcd60e51b815260206004820152602660248201527f4f776e61626c653a206e6577206f776e657220697320746865207a65726f206160448201527f646472657373000000000000000000000000000000000000000000000000000060648201526084016103a1565b610bce81610e42565b6000546001600160a01b031633146106d95760405162461bcd60e51b815260206004820181905260248201527f4f776e61626c653a2063616c6c6572206973206e6f7420746865206f776e657260448201526064016103a1565b6040516001600160a01b038316602482015260448101829052610dcb9084907fa9059cbb00000000000000000000000000000000000000000000000000000000906064015b60408051601f198184030181529190526020810180517bffffffffffffffffffffffffffffffffffffffffffffffffffffffff167fffffffff0000000000000000000000000000000000000000000000000000000090931692909217909152610f23565b505050565b6003546001600160a01b038281166000908152600960205260408082205460025491516370a0823160e01b815230600482015292948594610e3b94919361085d93929116906370a0823190602401602060405180830381865afa158015610833573d6000803e3d6000fd5b9392505050565b600080546001600160a01b0383811673ffffffffffffffffffffffffffffffffffffffff19831681178455604051919092169283917f8be0079c531659141344cd1fd0a4f28419497f9722a3daafe3b4186f6b6457e09190a35050565b6000610eab8284611224565b90505b92915050565b6000610eab828461123b565b6040516001600160a01b0380851660248301528316604482015260648101829052610f119085907f23b872dd0000000000000000000000000000000000000000000000000000000090608401610d67565b50505050565b6000610eab82846111f8565b6000610f78826040518060400160405280602081526020017f5361666545524332303a206c6f772d6c6576656c2063616c6c206661696c6564815250856001600160a01b03166110089092919063ffffffff16565b805190915015610dcb5780806020019051810190610f96919061125d565b610dcb5760405162461bcd60e51b815260206004820152602a60248201527f5361666545524332303a204552433230206f7065726174696f6e20646964206e60448201527f6f7420737563636565640000000000000000000000000000000000000000000060648201526084016103a1565b6060611017848460008561101f565b949350505050565b6060824710156110975760405162461bcd60e51b815260206004820152602660248201527f416464726573733a20696e73756666696369656e742062616c616e636520666f60448201527f722063616c6c000000000000000000000000000000000000000000000000000060648201526084016103a1565b6001600160a01b0385163b6110ee5760405162461bcd60e51b815260206004820152601d60248201527f416464726573733a2063616c6c20746f206e6f6e2d636f6e747261637400000060448201526064016103a1565b600080866001600160a01b0316858760405161110a91906112a3565b60006040518083038185875af1925050503d8060008114611147576040519150601f19603f3d011682016040523d82523d6000602084013e61114c565b606091505b509150915061115c828286611167565b979650505050505050565b60608315611176575081610e3b565b8251156111865782518084602001fd5b8160405162461bcd60e51b81526004016103a191906112bf565b6000602082840312156111b257600080fd5b5035919050565b6000602082840312156111cb57600080fd5b81356001600160a01b0381168114610e3b57600080fd5b634e487b7160e01b600052601160045260246000fd5b80820180821115610eae57610eae6111e2565b60006020828403121561121d57600080fd5b5051919050565b8082028115828204841417610eae57610eae6111e2565b60008261125857634e487b7160e01b600052601260045260246000fd5b500490565b60006020828403121561126f57600080fd5b81518015158114610e3b57600080fd5b60005b8381101561129a578181015183820152602001611282565b50506000910152565b600082516112b581846020870161127f565b9190910192915050565b60208152600082518060208401526112de81604085016020870161127f565b601f01601f1916919091016040019291505056fea26469706673582212205b572d425f7345726113f2e8e6e89c9a08590a38fc7429b584327446b226287c64736f6c63430008110033",
  "devdoc": {
    "kind": "dev",
    "methods": {
      "owner()": {
        "details": "Returns the address of the current owner."
      },
      "renounceOwnership()": {
        "details": "Leaves the contract without owner. It will not be possible to call `onlyOwner` functions anymore. Can only be called by the current owner. NOTE: Renouncing ownership will leave the contract without an owner, thereby removing any functionality that is only available to the owner."
      },
      "transferOwnership(address)": {
        "details": "Transfers ownership of the contract to a new account (`newOwner`). Can only be called by the current owner."
      }
    },
    "version": 1
  },
  "userdoc": {
    "kind": "user",
    "methods": {},
    "version": 1
  },
  "storageLayout": {
    "storage": [
      {
        "astId": 7,
        "contract": "contracts/MethCookingLab.sol:MethCookingLab",
        "label": "_owner",
        "offset": 0,
        "slot": "0",
        "type": "t_address"
      },
      {
        "astId": 1207,
        "contract": "contracts/MethCookingLab.sol:MethCookingLab",
        "label": "token",
        "offset": 0,
        "slot": "1",
        "type": "t_contract(IERC20)233"
      },
      {
        "astId": 1210,
        "contract": "contracts/MethCookingLab.sol:MethCookingLab",
        "label": "wETH",
        "offset": 0,
        "slot": "2",
        "type": "t_contract(IERC20)233"
      },
      {
        "astId": 1212,
        "contract": "contracts/MethCookingLab.sol:MethCookingLab",
        "label": "totalStakedAmount",
        "offset": 0,
        "slot": "3",
        "type": "t_uint256"
      },
      {
        "astId": 1214,
        "contract": "contracts/MethCookingLab.sol:MethCookingLab",
        "label": "minStakingDuration",
        "offset": 0,
        "slot": "4",
        "type": "t_uint256"
      },
      {
        "astId": 1217,
        "contract": "contracts/MethCookingLab.sol:MethCookingLab",
        "label": "minimumShillCount",
        "offset": 0,
        "slot": "5",
        "type": "t_uint256"
      },
      {
        "astId": 1220,
        "contract": "contracts/MethCookingLab.sol:MethCookingLab",
        "label": "maxStakerCount",
        "offset": 0,
        "slot": "6",
        "type": "t_uint256"
      },
      {
        "astId": 1222,
        "contract": "contracts/MethCookingLab.sol:MethCookingLab",
        "label": "startTime",
        "offset": 0,
        "slot": "7",
        "type": "t_uint256"
      },
      {
        "astId": 1224,
        "contract": "contracts/MethCookingLab.sol:MethCookingLab",
        "label": "endTime",
        "offset": 0,
        "slot": "8",
        "type": "t_uint256"
      },
      {
        "astId": 1229,
        "contract": "contracts/MethCookingLab.sol:MethCookingLab",
        "label": "stakers",
        "offset": 0,
        "slot": "9",
        "type": "t_mapping(t_address,t_struct(Staker)1204_storage)"
      },
      {
        "astId": 1232,
        "contract": "contracts/MethCookingLab.sol:MethCookingLab",
        "label": "stakerAddresses",
        "offset": 0,
        "slot": "10",
        "type": "t_array(t_address)dyn_storage"
      }
    ],
    "types": {
      "t_address": {
        "encoding": "inplace",
        "label": "address",
        "numberOfBytes": "20"
      },
      "t_array(t_address)dyn_storage": {
        "base": "t_address",
        "encoding": "dynamic_array",
        "label": "address[]",
        "numberOfBytes": "32"
      },
      "t_bool": {
        "encoding": "inplace",
        "label": "bool",
        "numberOfBytes": "1"
      },
      "t_contract(IERC20)233": {
        "encoding": "inplace",
        "label": "contract IERC20",
        "numberOfBytes": "20"
      },
      "t_mapping(t_address,t_struct(Staker)1204_storage)": {
        "encoding": "mapping",
        "key": "t_address",
        "label": "mapping(address => struct MethCookingLab.Staker)",
        "numberOfBytes": "32",
        "value": "t_struct(Staker)1204_storage"
      },
      "t_struct(Staker)1204_storage": {
        "encoding": "inplace",
        "label": "struct MethCookingLab.Staker",
        "members": [
          {
            "astId": 1197,
            "contract": "contracts/MethCookingLab.sol:MethCookingLab",
            "label": "stakedAmount",
            "offset": 0,
            "slot": "0",
            "type": "t_uint256"
          },
          {
            "astId": 1199,
            "contract": "contracts/MethCookingLab.sol:MethCookingLab",
            "label": "stakingTime",
            "offset": 0,
            "slot": "1",
            "type": "t_uint256"
          },
          {
            "astId": 1201,
            "contract": "contracts/MethCookingLab.sol:MethCookingLab",
            "label": "claimed",
            "offset": 0,
            "slot": "2",
            "type": "t_bool"
          },
          {
            "astId": 1203,
            "contract": "contracts/MethCookingLab.sol:MethCookingLab",
            "label": "shilled",
            "offset": 1,
            "slot": "2",
            "type": "t_bool"
          }
        ],
        "numberOfBytes": "96"
      },
      "t_uint256": {
        "encoding": "inplace",
        "label": "uint256",
        "numberOfBytes": "32"
      }
    }
  }
}